:020000040800F2
:1000000000C0002049560008532500085925000863
:100010005F250008652500086B250008000000002A
:100020000000000000000000000000007125000832
:100030007D2500080000000089250008952500089E
:1000400091560008915600089156000891560008F4
:1000500091560008915600089156000891560008E4
:1000600091560008915600089156000891560008D4
:1000700091560008915600089156000891560008C4
:1000800091560008915600089156000891560008B4
:1000900091560008915600089156000891560008A4
:1000A0009156000891560008915600089156000894
:1000B0009156000891560008915600089156000884
:1000C0009156000891560008915600089156000874
:1000D00091560008A1250008915600089156000885
:1000E0009156000891560008915600089156000854
:1000F0009156000891560008915600089156000844
:100100009156000891560008915600089156000833
:100110009156000891560008B52500089156000830
:100120009156000891560008915600089156000813
:1001300000000000000000000000000000000000BF
:1001400000000000000000000000000000000000AF
:10015000000000000000000000000000000000009F
:10016000000000000000000000000000000000008F
:10017000000000000000000000000000000000007F
:10018000000000000000000000000000000000006F
:10019000000000000000000000000000000000005F
:1001A000000000000000000000000000000000004F
:1001B000000000000000000000000000000000003F
:1001C000000000000000000000000000000000002F
:1001D000000000000000000000000000000000001F
:0401E0005FF8E0F1F3
:1001E40010B5054C237833B9044B13B10448AFF36D
:1001F40000800123237010BD1800002000000000BF
:10020400EC56000808B5034B1BB103490348AFF390
:10021400008008BD000000001C000020EC5600080F
:1002240081F0004102E000BF83F0004330B54FEAA3
:1002340041044FEA430594EA050F08BF90EA020F10
:100244001FBF54EA000C55EA020C7FEA645C7FEAA3
:10025400655C00F0E2804FEA5454D4EB5555B8BFC6
:100264006D420CDD2C4480EA020281EA030382EA37
:10027400000083EA010180EA020281EA0303362DC9
:1002840088BF30BD11F0004F4FEA01314FF4801C9C
:100294004CEA113102D0404261EB410113F0004FAE
:1002A4004FEA03334CEA133302D0524263EB430365
:1002B40094EA050F00F0A780A4F10104D5F1200E03
:1002C4000DDB02FA0EFC22FA05F2801841F100015E
:1002D40003FA0EF2801843FA05F359410EE0A5F132
:1002E40020050EF1200E012A03FA0EFC28BF4CF063
:1002F400020C43FA05F3C01851EBE37101F0004519
:1003040007D54FF0000EDCF1000C7EEB00006EEB25
:100314000101B1F5801F1BD3B1F5001F0CD34908AF
:100324005FEA30004FEA3C0C04F101044FEA445206
:1003340012F5800F80F09A80BCF1004F08BF5FEA8D
:10034400500C50F1000041EB045141EA050130BD6D
:100354005FEA4C0C404141EB0101013C28BFB1F57F
:10036400801FE9D291F0000F04BF01460020B1FACA
:1003740081F308BF2033A3F10B03B3F120020CDA9D
:100384000C3208DD02F1140CC2F10C0201FA0CF07B
:1003940021FA02F10CE002F11402D8BFC2F1200CE0
:1003A40001FA02F120FA0CFCDCBF41EA0C01904096
:1003B400E41AA2BF01EB0451294330BD6FEA0404DF
:1003C4001F3C1CDA0C340EDC04F11404C4F12002CA
:1003D40020FA04F001FA02F340EA030021FA04F3DC
:1003E40045EA030130BDC4F10C04C4F1200220FA33
:1003F40002F001FA04F340EA0300294630BD21FA71
:1004040004F0294630BD94F0000F83F4801306BF36
:1004140081F480110134013D4EE77FEA645C18BF2A
:100424007FEA655C29D094EA050F08BF90EA020FC1
:1004340005D054EA000C04BF1946104630BD91EAB9
:10044400030F1EBF0021002030BD5FEA545C05D1BC
:100454004000494128BF41F0004130BD14F58004FB
:100464003CBF01F5801130BD01F0004545F0FE416F
:1004740041F470014FF0000030BD7FEA645C1ABFA4
:10048400194610467FEA655C1CBF0B46024650EADB
:10049400013406BF52EA033591EA030F41F4002107
:1004A40030BD00BF90F0000F04BF0021704730B58D
:1004B4004FF4806404F132044FF000054FF0000162
:1004C40050E700BF90F0000F04BF0021704730B523
:1004D4004FF4806404F1320410F0004548BF4042F8
:1004E4004FF000013EE700BF42004FEAE2014FEA4D
:1004F40031014FEA02701FBF12F07F4393F07F4F28
:1005040081F06051704732F07F4208BF704793F02A
:100514007F4F04BF41F40021704730B54FF460743D
:1005240001F0004521F000411CE700BF50EA010240
:1005340008BF704730B54FF000050AE050EA0102E9
:1005440008BF704730B511F0004502D5404261EB59
:1005540041014FF4806404F132045FEA915C3FF49A
:10056400D8AE4FF003025FEADC0C18BF03325FEA37
:10057400DC0C18BF033202EBDC02C2F1200300FAE8
:1005840003FC20FA02F001FA03FE40EA0E0021FA0D
:1005940002F11444BDE600BF70B54FF0FF0C4CF4FB
:1005A400E06C1CEA11541DBF1CEA135594EA0C0FAD
:1005B40095EA0C0F00F0DEF82C4481EA030621EAE8
:1005C4004C5123EA4C5350EA013518BF52EA033523
:1005D40041F4801143F4801338D0A0FB02CE4FF0D5
:1005E4000005E1FB02E506F00042E0FB03E54FF005
:1005F4000006E1FB03569CF0000F18BF4EF0010EFD
:10060400A4F1FF04B6F5007F64F5407404D25FEAF8
:100614004E0E6D4146EB060642EAC62141EA5551AB
:100624004FEAC52040EA5E504FEACE2EB4F1FD0CED
:1006340088BFBCF5E06F1ED8BEF1004F08BF5FEA6B
:10064400500E50F1000041EB045170BD06F000461D
:1006540046EA010140EA020081EA0301B4EB5C04CA
:10066400C2BFD4EB0C0541EA045170BD41F48011C2
:100674004FF0000E013C00F3AB8014F1360FDEBFE7
:10068400002001F0004170BDC4F10004203C35DAC3
:100694000C341BDC04F11404C4F1200500FA05F346
:1006A40020FA04F001FA05F240EA020001F00042E7
:1006B40021F0004110EBD37021FA04F642EB06015D
:1006C4005EEA430E08BF20EAD37070BDC4F10C0487
:1006D400C4F1200500FA04F320FA05F001FA04F24B
:1006E40040EA020001F0004110EBD37041F1000137
:1006F4005EEA430E08BF20EAD37070BDC4F1200542
:1007040000FA05F24EEA020E20FA04F301FA05F2A9
:1007140043EA020321FA04F001F0004121FA04F251
:1007240020EA020000EBD3705EEA430E08BF20EA21
:10073400D37070BD94F0000F0FD101F0004640005B
:1007440041EB010111F4801F08BF013CF7D041EADD
:10075400060195F0000F18BF704703F000465200E1
:1007640043EB030313F4801F08BF013DF7D043EAB2
:100774000603704794EA0C0F0CEA135518BF95EA68
:100784000C0F0CD050EA410618BF52EA4306D1D1EF
:1007940081EA030101F000414FF0000070BD50EA0E
:1007A400410606BF1046194652EA430619D094EA98
:1007B4000C0F02D150EA013613D195EA0C0F05D182
:1007C40052EA03361CBF104619460AD181EA0301D6
:1007D40001F0004141F0FE4141F470014FF000008E
:1007E40070BD41F0FE4141F4780170BD70B54FF029
:1007F400FF0C4CF4E06C1CEA11541DBF1CEA1355A9
:1008040094EA0C0F95EA0C0F00F0A7F8A4EB05048A
:1008140081EA030E52EA03354FEA013100F0888081
:100824004FEA03334FF0805545EA131343EA12634A
:100834004FEA022245EA111545EA10654FEA0026FF
:100844000EF000419D4208BF964244F1FD0404F5B8
:10085400407402D25B084FEA3202B61A65EB030514
:100864005B084FEA32024FF480104FF4002CB6EBD1
:10087400020E75EB030E22BFB61A754640EA0C0051
:100884005B084FEA3202B6EB020E75EB030E22BF91
:10089400B61A754640EA5C005B084FEA3202B6EBD2
:1008A400020E75EB030E22BFB61A754640EA9C0091
:1008B4005B084FEA3202B6EB020E75EB030E22BF61
:1008C400B61A754640EADC0055EA060E18D04FEA1F
:1008D400051545EA16754FEA06164FEAC30343EABF
:1008E40052734FEAC2025FEA1C1CC0D111F4801F8C
:1008F4000BD141EA00014FF000004FF0004CB6E785
:1009040011F4801F04BF01430020B4F1FD0C88BF23
:10091400BCF5E06F3FF6AFAEB5EB030C04BFB6EB2E
:10092400020C5FEA500C50F1000041EB045170BD21
:100934000EF0004E4EEA113114EB5C04C2BFD4EB4E
:100944000C0541EA045170BD41F480114FF0000ED2
:10095400013C90E645EA060E8DE60CEA135594EA4E
:100964000C0F08BF95EA0C0F3FF43BAF94EA0C0F51
:100974000AD150EA01347FF434AF95EA0C0F7FF4C6
:1009840025AF104619462CE795EA0C0F06D152EA1A
:1009940003353FF4FDAE1046194622E750EA4106FE
:1009A40018BF52EA43067FF4C5AE50EA41047FF40F
:1009B4000DAF52EA43057FF4EBAE12E74FEA410272
:1009C400B2F1E04324BFB3F5001CDCF1FE5C0DD9A9
:1009D40001F0004C4FEAC0024CEA5070B2F1004FF3
:1009E40040EB830008BF20F00100704711F0804FF6
:1009F40021D113F13872BCBF01F00040704741F4BB
:100A040080114FEA5252C2F11802C2F1200C10FABE
:100A14000CF320FA02F018BF40F001004FEAC123A2
:100A24004FEAD32303FA0CFC40EA0C0023FA02F346
:100A34004FEA4303CCE77FEA625307D150EA01331C
:100A44001EBF4FF0FE4040F44000704701F00040EC
:100A540040F0FE4040F40000704700BF80F00040CA
:100A640002E000BF81F0004142001FBF5FEA410382
:100A740092EA030F7FEA226C7FEA236C6AD04FEA82
:100A84001262D2EB1363C1BFD218414048404140C7
:100A9400B8BF5B42192B88BF704710F0004F40F479
:100AA400000020F07F4018BF404211F0004F41F495
:100AB400000121F07F4118BF494292EA030F3FD061
:100AC400A2F1010241FA03FC10EB0C00C3F1200374
:100AD40001FA03F100F0004302D5494260EB400003
:100AE400B0F5000F13D3B0F1807F06D340084FEA6E
:100AF400310102F10102FE2A51D2B1F1004F40EB63
:100B0400C25008BF20F0010040EA030070474900CA
:100B140040EB0000013A28BFB0F5000FEDD2B0FA67
:100B240080FCACF1080CB2EB0C0200FA0CF0AABF8A
:100B340000EBC25052421843BCBFD0401843704728
:100B440092F0000F81F4000106BF80F4000001322E
:100B5400013BB5E74FEA41037FEA226C18BF7FEA05
:100B6400236C21D092EA030F04D092F0000F08BF47
:100B74000846704790EA010F1CBF0020704712F02E
:100B84007F4F04D1400028BF40F00040704712F16D
:100B940000723CBF00F50000704700F0004343F0D2
:100BA400FE4040F4000070477FEA226216BF084608
:100BB4007FEA23630146420206BF5FEA412390EACB
:100BC400010F40F4800070474FF0000304E000BFC1
:100BD40010F0004348BF40425FEA000C08BF704772
:100BE40043F0964301464FF000001CE050EA010236
:100BF40008BF70474FF000030AE000BF50EA01024B
:100C040008BF704711F0004302D5404261EB410137
:100C14005FEA010C02BF84460146002043F0B6435C
:100C240008BFA3F18053A3F50003BCFA8CF2083A81
:100C3400A3EBC25310DB01FA02FC634400FA02FC8A
:100C4400C2F12002BCF1004F20FA02F243EB020091
:100C540008BF20F00100704702F1200201FA02FCF3
:100C6400C2F1200250EA4C0021FA02F243EB0200E6
:100C740008BF20EADC7070474FF0FF0C1CEAD0522A
:100C84001EBF1CEAD15392EA0C0F93EA0C0F6FD0EB
:100C94001A4480EA010C400218BF5FEA41211ED0C9
:100CA4004FF0006343EA501043EA5111A0FB0131B5
:100CB4000CF00040B1F5000F3EBF490041EAD3718A
:100CC4005B0040EA010062F17F02FD2A1DD8B3F106
:100CD400004F40EBC25008BF20F00100704790F075
:100CE400000F0CF0004C08BF49024CEA502040EAC7
:100CF40051207F3AC2BFD2F1FF0340EAC25070478D
:100D040040F400004FF00003013A5DDC12F1190FCA
:100D1400DCBF00F000407047C2F10002410021FA3C
:100D240002F1C2F1200200FA02FC5FEA310040F154
:100D3400000053EA4C0308BF20EADC70704792F0CD
:100D4400000F00F0004C02BF400010F4000F013A05
:100D5400F9D040EA0C0093F0000F01F0004C02BF00
:100D6400490011F4000F013BF9D041EA0C018FE76F
:100D74000CEAD15392EA0C0F18BF93EA0C0F0AD075
:100D840030F0004C18BF31F0004CD8D180EA01009B
:100D940000F00040704790F0000F17BF90F0004F34
:100DA400084691F0000F91F0004F14D092EA0C0F16
:100DB40001D142020FD193EA0C0F03D14B0218BFA9
:100DC400084608D180EA010000F0004040F0FE40EF
:100DD40040F40000704740F0FE4040F4400070478B
:100DE4004FF0FF0C1CEAD0521EBF1CEAD15392EA0A
:100DF4000C0F93EA0C0F69D0A2EB030280EA010CFA
:100E040049024FEA402037D04FF0805343EA111192
:100E140043EA10130CF000408B4238BF5B0042F1F0
:100E24007D024FF4000C8B4224BF5B1A40EA0C0095
:100E3400B3EB510F24BFA3EB510340EA5C00B3EBC7
:100E4400910F24BFA3EB910340EA9C00B3EBD10FB5
:100E540024BFA3EBD10340EADC001B0118BF5FEA07
:100E64001C1CE0D1FD2A3FF650AF8B4240EBC25030
:100E740008BF20F0010070470CF0004C4CEA5020F1
:100E84007F32C2BFD2F1FF0340EAC250704740F440
:100E940000004FF00003013A37E792F0000F00F032
:100EA400004C02BF400010F4000F013AF9D040EAB0
:100EB4000C0093F0000F01F0004C02BF490011F444
:100EC400000F013BF9D041EA0C0195E70CEAD1533C
:100ED40092EA0C0F08D142027FF47DAF93EA0C0F23
:100EE4007FF470AF084676E793EA0C0F04D14B0207
:100EF4003FF44CAF08466EE730F0004C18BF31F0B9
:100F0400004CCAD130F000427FF45CAF31F00043B2
:100F14007FF43CAF5FE700BF4FF0FF3C06E000BF4B
:100F24004FF0010C02E000BF4FF0010C4DF804CD6E
:100F34004FEA40024FEA41037FEA226C18BF7FEA7E
:100F4400236C11D001B052EA530C18BF90EA010F80
:100F540058BFB2EB030088BFC81738BF6FEAE1700F
:100F640018BF40F0010070477FEA226C02D15FEAAB
:100F7400402C05D17FEA236CE4D15FEA412CE1D017
:100F84005DF8040B704700BF844608466146FFE7DE
:100F94000FB5FFF7C9FF002848BF10F1000F0FBDC0
:100FA4004DF808EDFFF7F4FF0CBF012000205DF8B9
:100FB40008FB00BF4DF808EDFFF7EAFF34BF01203E
:100FC40000205DF808FB00BF4DF808EDFFF7E0FFD7
:100FD40094BF012000205DF808FB00BF4DF808ED28
:100FE400FFF7D2FF94BF012000205DF808FB00BF8B
:100FF4004DF808EDFFF7C8FF34BF012000205DF86D
:1010040008FB00BF4FEA4002B2F1FE4F0FD34FF08E
:101014009E03B3EB12620DD94FEA002343F0004361
:1010240010F0004F23FA02F018BF404270474FF00F
:101034000000704712F1610F01D1420205D110F096
:10104400004008BF6FF0004070474FF00000704749
:1010540042000ED2B2F1FE4F0BD34FF09E03B3EB1E
:10106400126209D44FEA002343F0004323FA02F04A
:1010740070474FF00000704712F1610F01D1420236
:1010840002D14FF0FF3070474FF00000704700BFAF
:1010940080B489B000AFF860B9607A60FB682C3323
:1010A4001946BB6803F440734FF44072BA61BA69DD
:1010B40092FAA2F27A617A69B2FA82F2D2B2D34097
:1010C4009B000B44FB61FB691A68BB6803F01F03B8
:1010D4001F2101FA03F3DB431A407B6803F01F016D
:1010E400BB6803F01F0301FA03F31A43FB691A6098
:1010F40000BF2437BD4680BC704780B48DB000AFBC
:10110400F860B9607A60FB680C331946BB6803F079
:1011140000734FF00072BA61BA6992FAA2F27A616E
:101124007A69B2FA82F2D2B2D3409B000B44FB62DA
:10113400FB6A1A68BB6803F0F8734FF0F871396200
:10114400396A91FAA1F1F961F969B1FA81F1C9B287
:10115400CB40072101FA03F3DB431A40BB6803F0D9
:10116400F8734FF0F871B962B96A91FAA1F1796232
:10117400796AB1FA81F1C9B2CB40796801FA03F313
:101184001A43FB6A1A6000BF3437BD4680BC7047FF
:1011940080B483B000AF78607B689B6843F0010241
:1011A4007B689A6000BF0C37BD4680BC704780B432
:1011B40083B000AF78607B689B6823F001027B6892
:1011C4009A6000BF0C37BD4680BC704780B483B0C2
:1011D40000AF78607B689B6843F004027B689A6088
:1011E40000BF0C37BD4680BC704780B483B000AFED
:1011F40078607B689B6803F00403042B0CBF012315
:101204000023DBB218460C37BD4680BC704780B45F
:1012140083B000AF78607B689B6843F4A0027B686E
:101224009A6000BF0C37BD4680BC704780B483B061
:1012340000AF78607B68DB6C9BB218460C37BD4608
:1012440080BC704780B483B000AF78607B681B6853
:1012540003F00203022B0CBF01230023DBB2184668
:101264000C37BD4680BC704780B483B000AF786053
:101274007B686FF002021A6000BF0C37BD4680BC69
:101284007047000080B485B000AFF860B9607A6040
:10129400BB68013B0C4AD35C1A46FB6813441B68C9
:1012A40023F4804323F01003BA68013A06498A5CA8
:1012B4001146FA680A4411467A6813430B6000BF6A
:1012C4001437BD4680BC70473857000880B485B0D9
:1012D40000AFF860B9607A60BB68013B0B4AD35C2D
:1012E4001A46FB6813441B6823F02002BB68013BC9
:1012F4000649CB5C1946FB680B4419467B681343CB
:101304000B6000BF1437BD4680BC704738570008D7
:1013140080B485B000AFF860B9607A60BB68013B07
:101324000B4AD35C1A46FB6813441B6823F0400243
:10133400BB68013B0649CB5C1946FB680B44194664
:101344007B6813430B6000BF1437BD4680BC7047F5
:101354003857000880B485B000AFF860B9607A608F
:10136400BB68013B0B4AD35C1A46FB6813441B68F9
:1013740023F08002BB68013B0649CB5C1946FB683D
:101384000B4419467B6813430B6000BF1437BD46FA
:1013940080BC70473857000880B485B000AFF8604F
:1013A400B9607A60BB68013B0B4AD35C1A46FB68A0
:1013B40013441B6823F44072BB68013B0649CB5CB1
:1013C4001946FB680B4419467B6813430B6000BF46
:1013D4001437BD4680BC70473857000880B485B0C8
:1013E40000AFF860B9607A60BB68013B0B4AD35C1C
:1013F4001A46FB6813441B6823F44062BB68013B34
:101404000649CB5C1946FB680B4419467B681343B9
:101414000B6000BF1437BD4680BC704738570008C6
:1014240080B485B000AFF860B9607A60BB68013BF6
:101434000B4AD35C1A46FB6813441B6823F44052DE
:10144400BB68013B0649CB5C1946FB680B44194653
:101454007B6813430B6000BF1437BD4680BC7047E4
:101464003857000880B483B000AF78607B681B688D
:1014740043F001027B681A6000BF0C37BD4680BC94
:10148400704780B483B000AF78607B681B6823F03A
:1014940001027B681A6000BF0C37BD4680BC7047F0
:1014A40080B483B000AF78607B681B6843F080022F
:1014B4007B681A6000BF0C37BD4680BC704780B49F
:1014C40083B000AF786039607B683A689A6200BF85
:1014D4000C37BD4680BC704780B483B000AF7860E1
:1014E40039607B683A68DA6200BF0C37BD4680BC5D
:1014F400704780B483B000AF786039607B681A6A43
:101504003B681A437B681A6200BF0C37BD4680BC37
:101514007047000080B485B000AF786039603B68E4
:10152400012B1CD03B68042B17D03B68102B12D026
:101534003B68402B0DD03B68B3F5807F07D03B68F8
:10154400B3F5806F01D105230AE0062308E00423E4
:1015540006E0032304E0022302E0012300E0002369
:10156400FB737B6818331946FB7B0A4AD35C0B4434
:10157400BB60BB681A68FB7B0749CB5C1946042334
:101584008B40DB431A40BB681A6000BF1437BD466A
:1015940080BC7047405700084857000880B485B0A5
:1015A40000AF786039603B68012B1CD03B68042B8A
:1015B40017D03B68102B12D03B68402B0DD03B68F2
:1015C400B3F5807F07D03B68B3F5806F01D1052365
:1015D4000AE0062308E0042306E0032304E00223D0
:1015E40002E0012300E00023FB737B6818331946F3
:1015F400FB7B0A4AD35C0B44BB60BB681A68FB7B69
:101604000749CB5C194608238B401A43BB681A6010
:1016140000BF1437BD4680BC704700BF4057000868
:101624004857000880B483B000AF786039607B68A5
:101634009B6823F4804323F007033A681A437B68CA
:101644009A6000BF0C37BD4680BC704780B483B03D
:1016540000AF786039607B685B6823F070023B6898
:101664001A437B685A6000BF0C37BD4680BC704784
:1016740080B483B000AF78607B689B6823F08002FD
:101684007B689A6000BF0C37BD4680BC704780B44D
:1016940083B000AF78607B685B6C43F480427B6806
:1016A4005A6400BF0C37BD4680BC704780B483B019
:1016B40000AF78607B685B6C43F400427B685A64DB
:1016C40000BF0C37BD4680BC704780B483B000AF08
:1016D40078607B686FF001021A6100BF0C37BD4669
:1016E40080BC704780B483B000AF78607B681B69AE
:1016F40003F00103012B01D1012300E0002318466C
:101704000C37BD4680BC704780B485B000AF7860AC
:10171400084B5A6907497B6813434B61054B5A6967
:101724007B681340FB60FB6800BF1437BD4680BC78
:10173400704700BF0010024080B485B000AF7860ED
:10174400084BDA6907497B681343CB61054BDA69B7
:101754007B681340FB60FB6800BF1437BD4680BC48
:10176400704700BF0010024080B485B000AF7860BD
:10177400084B9A6907497B6813438B61054B9A6947
:101784007B681340FB60FB6800BF1437BD4680BC18
:10179400704700BF0010024080B400AF074B5B6885
:1017A40023F0E06323F0C003044A43F0E06343F012
:1017B4004003536000BFBD4680BC70470000014039
:1017C40080B582B000AF786039607B6800225A62CD
:1017D4007868FFF756FE7868FFF777FF3A68134694
:1017E4005B0013445B0019467868FFF768FE7821B4
:1017F4007868FFF771FE7868FFF734FE00BF7868F9
:10180400FFF770FF0346002BF9D07868FFF75DFF00
:101814007868FFF736FE00BF0837BD4680BD80B448
:1018240083B000AF78607B681B78012B01D1002363
:1018340006E07B681B78FF2B01D1022300E0012323
:1018440018460C37BD4680BC704780B582B000AFE7
:1018540078600B46FB70FB781A460021786803F029
:101864003BFF00BF0837BD4680BD80B584B000AFE4
:10187400F860B9607A60B868FFF7D1FF0346002BBF
:1018840005D17A68B968F86800F0A8FC09E0B8687E
:10189400FFF7C5FF0346022B03D1B968F86800F0CF
:1018A4006DFC0421B868FFF7D0FF00BF1037BD46B8
:1018B40080BD80B582B000AF786005217868FFF7FD
:1018C40018FE7868FFF7CEFD7868FFF7EFFE7868BA
:1018D400FFF7DDFE00BF0837BD4680BD80B582B08E
:1018E40000AF78607968034800F096FD00BF0837C0
:1018F400BD4680BD002C014080B582B000AF786049
:101904007868FFF784FC00BF7868FFF79BFC034608
:10191400002BF9D07868FFF7A7FC7868FFF786FCFE
:10192400034618460837BD4680BD000080B500AFA9
:101934000248FFF7E1FF0346184680BD002401403A
:1019440080B582B000AF78600021064800F00EFD3B
:101954000548FFF7D1FF02467B681A6000BF0837CD
:10196400BD4680BD002C01400024014080B590B0EC
:1019740002AF01F0C5F900F06FF800F0B3FA00F01F
:10198400A9FA00F011FA00F075FA00F073F900F00A
:1019940045FA00F0D3F800F0BCF82348FFF789FFBC
:1019A40000237B63002387F833302048FFF7C8FF08
:1019B400381D1F4B01931F4B00934FF000031E4A29
:1019C4001E4900F095FD1E48FFF788FF1D4B5B681C
:1019D40019461D48FFF7F4FE1A4A1C491C48FFF734
:1019E40044FF18491A4800F041FC7B6B642B05DC6A
:1019F40001220421174802F03FF810E07B6B642BAE
:101A040008DD7B6BC82B05DC00220421114802F0A1
:101A140033F804E07B6BC82B01DD00237B637B6B15
:101A240001337B63CFE700BF002C01400800002096
:101A3400E118000831190008ACC5A7370AD7A33C40
:101A44000000C842000000200014004038000020BC
:101A5400880000200014014080B596B000AF07F163
:101A6400300328220021184603F036FE07F11C0338
:101A740000221A605A609A60DA601A613B1D0022E3
:101A84001A605A609A60DA601A615A6101233B63F2
:101A94004FF480337B630023BB6301233B64022345
:101AA400FB644FF480333B654FF4E0137B6507F12F
:101AB4003003184601F086F90346002B01D000F0EC
:101AC4007BFA0F23FB6102233B6200237B624FF40A
:101AD4008063BB620023FB6207F11C0302211846EA
:101AE40001F0F2FB0346002B01D000F065FA02235B
:101AF4007B604FF40043FB603B1D184601F072FD10
:101B04000346002B01D000F057FA00BF5837BD46FA
:101B140080BD80B500AF00220F21362002F0DFF92E
:101B2400362002F0F8F900220421252002F0D7F92A
:101B3400252002F0F0F900BF80BD000080B58EB012
:101B440000AF4848FFF733FB4648FFF73FFB00BFB1
:101B54004448FFF74AFB0346002BF9D107F1300351
:101B640000221A605A600023FB6207F11803002266
:101B74001A605A609A60DA601A613B1D00221A608A
:101B84005A609A60DA601A614FF40070FFF7ECFD56
:101B94000420FFF7E9FD40F202237B600023BB60D1
:101BA4003B1D1946304803F00DFC002201212F484B
:101BB400FFF768FB002201212C48FFF731FC0022CB
:101BC40001212A48FFF782FB002201212748FFF761
:101BD4009FFB802201212548FFF7BCFB4FF4807254
:101BE40001212248FFF7D8FB4FF4806201211F48EE
:101BF400FFF7F4FB00233B634FF480737B6307F12F
:101C040030031946174803F0AFFC0023FB6207F1C9
:101C14002C031946134803F05FFC4FF46023BB61A7
:101C24000023FB6100233B6202237B624FF4807339
:101C3400BB6207F1180319460A4803F0BCFC0C4ABE
:101C44004FF400710748FFF723FA002208490548BA
:101C5400FFF753FA0348FFF79BFA00BF3837BD4636
:101C640080BD00BF00240140000801400000024084
:101C74000100300280B598B000AF07F14C03002298
:101C84001A605A609A60DA601A6107F12C03202204
:101C94000021184603F020FD07F1140300221A6006
:101CA4005A609A60DA601A615A613B4600221A60EF
:101CB4005A609A60DA601A614FF40060FFF754FDCD
:101CC4000123A7F84C3000233B654FF461637B6527
:101CD4000023BB650023FB6507F14C0319462F481D
:101CE40003F01CF82D48FFF7DBFB00212B48FFF71E
:101CF40099FC01212948FFF751FC6023FB62002372
:101D04003B6300237B630023BB630023FB6300234B
:101D14003B644FF480737B644FF48073BB6407F1BE
:101D24002C031A4601211D4803F06EF801211B48BB
:101D3400FFF7F0FB00211948FFF788FC1748FFF76D
:101D440097FC00237B610023BB610023FB6100231C
:101D540087F8203000237B844FF400537B620023F8
:101D6400BB6207F1140319460C4803F08EF80120F6
:101D7400FFF7FAFC0A4B3B6009237B600223BB603C
:101D84000023FB603B461946064803F01BFBFFF7A4
:101D940003FD00BF6037BD4680BD00BF002C01407D
:101DA400818001040008014080B582B000AF3B4649
:101DB40000221A605A60174B174A1A60154B40F6F6
:101DC4006E225A60134B00229A60124B40F66E2228
:101DD400DA60104B80229A610E4800F08FFC0346B3
:101DE400002B01D000F0E8F800233B6000237B6067
:101DF4003B461946074800F005FF0346002B01D077
:101E040000F0DAF8034800F0C9FC00BF0837BD460B
:101E140080BD00BF400000200010004080B586B0A7
:101E240000AF3B1D00221A605A609A60DA601A61A2
:101E34002020FFF781FC0023BB800023BB604FF60A
:101E4400FF73FB603B1D1946094802F067FF084811
:101E5400FFF726FB00210648FFF7F8FB0448FFF7CD
:101E640007FC0348FFF7FEFA00BF1837BD4680BDE4
:101E74000014004080B500AF134B144A1A60124B93
:101E84004FF4E1325A60104B00229A600E4B00224C
:101E9400DA600D4B00221A610B4B0C225A610A4B7B
:101EA40000229A61084B0022DA61074802F053F8D5
:101EB4000346002B01D000F07FF8012204490248B8
:101EC40002F01CF900BF80BD8800002000380140EA
:101ED4003500002080B500AF0120FFF715FC00BFDE
:101EE40080BD000080B586B000AF07F10803002272
:101EF4001A605A609A60DA60174B9B69164A43F07D
:101F040020039361144B9B6903F020037B607B687F
:101F1400114B9B69104A43F0040393610E4B9B6978
:101F240003F004033B603B68002204210B4801F0EA
:101F3400A3FD0423BB600123FB6000233B61022358
:101F44007B6107F108031946044801F001FC00BF56
:101F54001837BD4680BD00BF001002400014014088
:101F640080B483B000AF7860034B01221A7000BFC5
:101F74000C37BD4680BC70473400002080B582B069
:101F840000AF7860074B084A0849094800F01AF87E
:101F940001220649074802F0B1F800BF0837BD46E0
:101FA40080BD00BF34000020380000203500002030
:101FB400400000208800002080B400AF72B600BF4B
:101FC400FEE7000080B586B000AFF860B9607A60C3
:101FD4003B60464B1B78002B02D0012B16D082E0CD
:101FE400BB681B78AF2B03D0404B00221A707AE0F9
:101FF4003E4B01221A70F86800F0D0FBFB681B68A6
:1020040000225A623B6800221A706CE0384B1B783D
:10201400062B12D83B681B78002B0ED1344B1B784F
:102024001A467B681344BA6812781A70304B1B78CE
:102034000133DAB22E4B1A7054E02D4B1B78062B69
:102044002BD93B681B78002B27D1BB681B78EF2B5F
:1020540009D1264B00221A70254B00221A70F86809
:1020640000F0FCFB3FE00023FB7507E0FB7D7A6892
:10207400134400221A70FB7D0133FB751C4B1B7843
:10208400FA7D9A42F2D3F86800F0E8FB174B00227D
:102094001A70174B00221A7025E0154B1B78062B7B
:1020A40020D83B681B78012B1CD10023BB7507E0AB
:1020B400BB7D7A68134400221A70BB7D0133BB7563
:1020C4000B4B1B78BA7D9A42F2D33B6800221A70FC
:1020D400F86800F0C3FB054B00221A70044B002281
:1020E4001A7000E000BF1837BD4680BDD000002044
:1020F400D100002080B584B000AF7860396002233D
:10210400BB600DE0FB681B02FB60BB687A6813448C
:102114001B781A46FB681344FB60BB680133BB6041
:10212400BB68052BEEDDF868FEF74EFD02463B6802
:102134001A6000BF1037BD4680BD80B485B000AFC3
:10214400786039600223BB600DE0FB681B02FB6012
:10215400BB687A6813441B781A46FB681344FB6017
:10216400BB680133BB60BB68052BEEDD3B68FA68D6
:102174005A6000BF1437BD4680BC704780B584B038
:1021840000AF786039600223BB600DE0FB681B027E
:10219400FB60BB683A6813441B781A46FB68134417
:1021A400FB60BB680133BB60BB68052BEEDD3B689D
:1021B40001331B78552B03D1FB68B3F1AA3F06D03A
:1021C4004FF47A7325220449786801F014FF00BFA4
:1021D4001037BD4680BD00BF0457000880B584B0E9
:1021E40000AFF860B9607A60BB6801331B78012BDB
:1021F40002D0022B09D011E07968B868FFF77AFFA2
:102204000121F86800F00EF808E07968B868FFF773
:1022140094FF0121F86800F005F800BF00BF1037F3
:10222400BD4680BD80B586B000AF78600B46FB70BC
:10223400AF233B73FB787B73AA23BB735523FB73D8
:1022440055233B7455237B745523BB740023FB74C3
:10225400EF233B7507F10C014FF47A730922786878
:1022640001F0C9FE00BF1837BD4680BD80B586B0F9
:1022740000AF786039602F4A07F10C0307CA03C323
:102284001A703B681B681846FEF7E2FE03461B0EF5
:10229400DBB2FB733B681B681846FEF7D9FE0346A6
:1022A4001B0CDBB23B743B681B681846FEF7D0FE80
:1022B40003461B0ADBB27B743B681B681846FEF7B7
:1022C400C7FE0346DBB2BB7407F10C014FF47A730B
:1022D4000922786801F08FFE174B1B68B3F57A7FEB
:1022E4001EDB3B685B681B0EDBB2FB733B685B6801
:1022F4001B0CDBB23B743B685B681B0ADBB27B7470
:102304003B685B68DBB2BB7407F10C014FF47A7372
:102314000922786801F06FFE074B00221A6004E07E
:10232400054B1B680133044A136000BF1837BD46D0
:1023340080BD00BF2C570008D400002080B483B0B7
:1023440000AF78607B68DB6A18460C37BD4680BCFA
:10235400704780B483B000AF786039607B683A68B6
:102364005A6300BF0C37BD4680BC7047B0B586B019
:1023740000AF786039607868FFF7E0FF0346013307
:102384007B613B687A6902FB03F3214A82FB0312F7
:102394005211DB17D31A3B613868FEF793F84FF0FC
:1023A40000021C4BFEF722FA02460B4614461D4659
:1023B4007869FEF787F802460B4620462946FEF761
:1023C400EBF802460B4610461946FEF7F7FA0346A9
:1023D400FB604FF07C51F868FEF70AFE0346002BC1
:1023E40002D03B6901333B613B687A6902FB03F32A
:1023F400074A82FB03125211DB17D31A7B617B69F4
:1024040019467868FFF7A5FF00BF1837BD46B0BD71
:102414001F85EB5100005940B0B586B000AF78601D
:1024240039604FF000013868FEF7E2FD0346002BE7
:102434004ED07868FFF782FF034601333B61386969
:10244400FEF7C6FB034639681846FEF715FC03463B
:1024540025491846FEF7C4FC03461846FEF7D2FD8C
:1024640003467B613868FEF73FF84FF000021F4BCC
:10247400FEF7BCF902460B4614461D463869FEF7C2
:1024840021F802460B4620462946FEF785F8024607
:102494000B4614461D467869FEF714F802460B46AF
:1024A40020462946FDF7C0FE02460B461046194653
:1024B400FEF784FA0346FB604FF07C51F868FEF7A0
:1024C40097FD0346002B05D07B6901337B6101E056
:1024D40000237B617B6919467868FFF73AFF00BFE8
:1024E4001837BD46B0BD00BF0000C84200005940C7
:1024F40080B485B000AFF860B9607A603B60FB6877
:10250400BA681A60FB687A685A60FB683A689A602D
:10251400FB684FF00002DA60FB684FF000021A61BA
:10252400FB684FF000029A61FB684FF00002DA6129
:10253400FB684FF000021A62FB68BA695A62FB68D2
:10254400FA699A6200BF1437BD4680BC704780B4F4
:1025540000AFFEE780B400AFFEE780B400AFFEE753
:1025640080B400AFFEE780B400AFFEE780B400AFF4
:1025740000BFBD4680BC704780B400AF00BFBD46FD
:1025840080BC704780B400AF00BFBD4680BC7047BC
:1025940080B500AF00F0FAFB00BF80BD80B500AF8E
:1025A400024801F0D1FD00BF80BD00BF88000020BB
:1025B40080B500AF024800F07FF900BF80BD00BFC6
:1025C4004000002080B485B000AF154B9B69144ACD
:1025D40043F001039361124B9B6903F00103BB6059
:1025E400BB680F4BDB690E4A43F08053D3610C4B3D
:1025F400DB6903F080537B607B680A4B5B68FB609C
:10260400FB6823F0E063FB60FB6843F00073FB604E
:10261400044AFB68536000BF1437BD4680BC704752
:10262400001002400000014080B485B000AF786023
:102634007B681B68094A93420BD1094BDB69084A42
:1026440043F01003D361064BDB6903F01003FB6016
:10265400FB6800BF1437BD4680BC704700100040C3
:102664000010024080B588B000AF786007F1100315
:1026740000221A605A609A60DA607B681B681C4A00
:10268400934231D11B4B9B691A4A43F480439361B3
:10269400184B9B6903F48043FB60FB68154B9B69F3
:1026A400144A43F004039361124B9B6903F004033F
:1026B400BB60BB684FF400733B6102237B6103235F
:1026C400FB6107F1100319460B4801F041F84FF480
:1026D40080633B6100237B610023BB6107F110032E
:1026E4001946054801F034F800BF2037BD4680BDC7
:1026F40000380140001002400008014080B582B05B
:1027040000AF78607B68002B01D1012341E07B6836
:1027140093F83D30DBB2002B06D17B68002283F8AE
:102724003C207868FFF780FF7B68022283F83D2015
:102734007B681A687B6804331946104600F0E8F990
:102744007B68012283F846207B68012283F83E20BF
:102754007B68012283F83F207B68012283F84020B4
:102764007B68012283F841207B68012283F84220A0
:102774007B68012283F843207B68012283F844208C
:102784007B68012283F845207B68012283F83D2081
:10279400002318460837BD4680BD000080B485B0CC
:1027A40000AF78607B6893F83D30DBB2012B01D039
:1027B400012344E07B68022283F83D207B681B6888
:1027C400DA687B681B6842F00102DA607B681B6888
:1027D4001D4A934218D07B681B681C4A934213D04D
:1027E4007B681B68B3F1804F0ED07B681B68184A66
:1027F400934209D07B681B68164A934204D07B68D5
:102804001B68154A934211D17B681B689B6803F0CF
:102814000703FB60FB68062B10D07B681B681A68F3
:102824007B681B6842F001021A6007E07B681B6842
:102834001A687B681B6842F001021A60002318467C
:102844001437BD4680BC7047002C01400034014061
:102854000004004000080040000C004080B483B035
:1028640000AF78607B681B68DA687B681B6822F0BD
:102874000102DA607B681B681A6A41F21113134083
:10288400002B0FD17B681B681A6A40F24443134043
:10289400002B07D17B681B681A687B681B6822F0D1
:1028A40001021A607B68012283F83D200023184648
:1028B4000C37BD4680BC704780B582B000AF7860ED
:1028C4007B681B681B6903F00203022B22D17B681F
:1028D4001B68DB6803F00203022B1BD17B681B68B7
:1028E4006FF002021A617B6801221A777B681B6809
:1028F4009B6903F00303002B03D0786800F0EDF824
:1029040005E0786800F0E0F8786800F0EFF87B689C
:1029140000221A777B681B681B6903F00403042BED
:1029240022D17B681B68DB6803F00403042B1BD1F2
:102934007B681B686FF004021A617B6802221A77B5
:102944007B681B689B6903F44073002B03D0786891
:1029540000F0C3F805E0786800F0B6F8786800F095
:10296400C5F87B6800221A777B681B681B6903F033
:102974000803082B22D17B681B68DB6803F008037B
:10298400082B1BD17B681B686FF008021A617B68F7
:1029940004221A777B681B68DB6903F00303002BAE
:1029A40003D0786800F099F805E0786800F08CF8B6
:1029B400786800F09BF87B6800221A777B681B68B4
:1029C4001B6903F01003102B22D17B681B68DB68A2
:1029D40003F01003102B1BD17B681B686FF01002EF
:1029E4001A617B6808221A777B681B68DB6903F429
:1029F4004073002B03D0786800F06FF805E0786826
:102A040000F062F8786800F071F87B6800221A77A9
:102A14007B681B681B6903F00103012B0ED17B68E3
:102A24001B68DB6803F00103012B07D17B681B687B
:102A34006FF001021A617868FFF792FA7B681B68ED
:102A44001B6903F08003802B0ED17B681B68DB6855
:102A540003F08003802B07D17B681B686FF0800232
:102A64001A61786800F043F97B681B681B6903F0FE
:102A74004003402B0ED17B681B68DB6803F04003E6
:102A8400402B07D17B681B686FF040021A6178689D
:102A940000F035F87B681B681B6903F02003202BCA
:102AA4000ED17B681B68DB6803F02003202B07D161
:102AB4007B681B686FF020021A61786800F00EF9D9
:102AC40000BF0837BD4680BD80B483B000AF7860D6
:102AD40000BF0C37BD4680BC704780B483B000AFE4
:102AE400786000BF0C37BD4680BC704780B483B0AB
:102AF40000AF786000BF0C37BD4680BC704780B41F
:102B040083B000AF786000BF0C37BD4680BC70470F
:102B140080B485B000AF786039607B681B68FB6067
:102B24007B68334A934213D07B68324A93420FD076
:102B34007B68B3F1804F0BD07B682F4A934207D058
:102B44007B682E4A934203D07B682D4A934208D176
:102B5400FB6823F07003FB603B685B68FA6813430F
:102B6400FB607B68224A934213D07B68214A9342DC
:102B74000FD07B68B3F1804F0BD07B681E4A934221
:102B840007D07B681D4A934203D07B681C4A93425A
:102B940008D1FB6823F44073FB603B68DB68FA6888
:102BA4001343FB60FB6823F080023B685B691343BB
:102BB400FB607B68FA681A603B689A687B68DA6233
:102BC4003B681A687B689A627B68094A934203D01F
:102BD4007B68084A934203D13B681A697B681A638D
:102BE4007B6801225A6100BF1437BD4680BC704720
:102BF400002C014000340140000400400008004063
:102C0400000C004080B485B000AF786039607B6808
:102C140093F83C30012B01D1022350E07B68012260
:102C240083F83C207B68022283F83D207B681B6884
:102C34005B68FB607B681B689B68BB60FB6823F078
:102C44007003FB603B681B68FA681343FB607B6896
:102C54001B68FA685A607B681B681B4A934218D049
:102C64007B681B68194A934213D07B681B68B3F1D5
:102C7400804F0ED07B681B68154A934209D07B684D
:102C84001B68144A934204D07B681B68124A93421F
:102C94000CD1BB6823F08003BB603B685B68BA68F7
:102CA4001343BB607B681B68BA689A607B68012227
:102CB40083F83D207B68002283F83C2000231846DB
:102CC4001437BD4680BC7047002C014000340140DD
:102CD4000004004000080040000C004080B483B0B1
:102CE40000AF786000BF0C37BD4680BC704780B42D
:102CF40083B000AF786000BF0C37BD4680BC70471E
:102D040080B500AF084B1B68074A43F010031360FB
:102D1400032001F0D9F80F2000F008F8FFF752FC67
:102D24000023184680BD00BF0020024080B582B059
:102D340000AF7860124B1A68124B1B7819464FF497
:102D44007A73B3FBF1F3B2FBF3F3184601F0F1F835
:102D54000346002B01D001230EE07B680F2B0AD819
:102D6400002279684FF0FF3001F0B9F8064A7B6819
:102D74001360002300E0012318460837BD4680BDD8
:102D840014000020100000200C00002080B400AFCC
:102D9400054B1B781A46054B1B681344034A136002
:102DA40000BFBD4680BC704710000020D800002042
:102DB40080B400AF024B1B681846BD4680BC704708
:102DC400D800002080B586B000AF78607B68002B07
:102DD40001D1012372E27B681B6803F00103002B1D
:102DE40000F08780924B5B6803F00C03042B0CD03B
:102DF4008F4B5B6803F00C03082B12D18C4B5B6880
:102E040003F48033B3F5803F0BD1894B1B6803F483
:102E14000033002B6CD07B685B68002B68D10123E6
:102E24004CE27B685B68B3F5803F06D1804B1B683E
:102E34007F4A43F4803313602EE07B685B68002B89
:102E44000CD17B4B1B687A4A23F480331360784B94
:102E54001B68774A23F4802313601DE07B685B685A
:102E6400B3F5A02F0CD1724B1B68714A43F4802335
:102E740013606F4B1B686E4A43F4803313600BE09E
:102E84006B4B1B686A4A23F480331360684B1B68DE
:102E9400674A23F4802313607B685B68002B13D09C
:102EA400FFF786FF386108E0FFF782FF02463B69BF
:102EB400D31A642B01D9032300E25D4B1B6803F48E
:102EC4000033002BF0D014E0FFF772FF386108E004
:102ED400FFF76EFF02463B69D31A642B01D9032323
:102EE400ECE1534B1B6803F40033002BF0D100E0FA
:102EF40000BF7B681B6803F00203002B63D04C4BBC
:102F04005B6803F00C03002B0BD0494B5B6803F0A8
:102F14000C03082B1CD1464B5B6803F48033002B55
:102F240016D1434B1B6803F00203002B05D07B68CA
:102F34001B69012B01D00123C0E13D4B1B6823F029
:102F4400F8027B685B69DB00394913430B603AE0A4
:102F54007B681B69002B20D0364B01221A60FFF7D7
:102F640027FF386108E0FFF723FF02463B69D31AC5
:102F7400022B01D90323A1E12D4B1B6803F00203AB
:102F8400002BF0D02A4B1B6823F0F8027B685B69A6
:102F9400DB00274913430B6015E0264B00221A601F
:102FA400FFF706FF386108E0FFF702FF02463B69BE
:102FB400D31A022B01D9032380E11D4B1B6803F0B4
:102FC4000203002BF0D17B681B6803F00803002B7D
:102FD4003AD07B689B69002B19D0174B01221A60E9
:102FE400FFF7E6FE386108E0FFF7E2FE02463B69C0
:102FF400D31A022B01D9032360E10D4B5B6A03F062
:103004000203002BF0D0012000F0CEFA1CE00A4BA2
:1030140000221A60FFF7CCFE38610FE0FFF7C8FE0C
:1030240002463B69D31A022B08D9032346E100BFA9
:10303400001002400000424280044242924B5B6A0C
:1030440003F00203002BE9D17B681B6803F004033F
:10305400002B00F0A6800023FB758B4BDB6903F08B
:103064008053002B0DD1884BDB69874A43F0805392
:10307400D361854BDB6903F08053BB60BB680123DC
:10308400FB75824B1B6803F48073002B18D17F4BB4
:103094001B687E4A43F480731360FFF789FE38612E
:1030A40008E0FFF785FE02463B69D31A642B01D979
:1030B400032303E1754B1B6803F48073002BF0D0EA
:1030C4007B68DB68012B06D16F4B1B6A6E4A43F0A9
:1030D400010313622DE07B68DB68002B0CD16A4B83
:1030E4001B6A694A23F001031362674B1B6A664A31
:1030F40023F0040313621CE07B68DB68052B0CD10E
:10310400614B1B6A604A43F0040313625E4B1B6A03
:103114005D4A43F0010313620BE05B4B1B6A5A4A9E
:1031240023F001031362584B1B6A574A23F004032C
:1031340013627B68DB68002B15D0FFF739FE38611A
:103144000AE0FFF735FE02463B69D31A41F28832A2
:10315400934201D90323B1E04B4B1B6A03F00203F2
:10316400002BEED014E0FFF723FE38610AE0FFF7EE
:103174001FFE02463B69D31A41F28832934201D9B9
:1031840003239BE0404B1B6A03F00203002BEED1A8
:10319400FB7D012B05D13C4BDB693B4A23F080537B
:1031A400D3617B68DB69002B00F08780364B5B685A
:1031B40003F00C03082B61D07B68DB69022B46D13A
:1031C400334B00221A60FFF7F3FD386108E0FFF784
:1031D400EFFD02463B69D31A022B01D903236DE0AC
:1031E400294B1B6803F00073002BF0D17B681B6A2A
:1031F400B3F5803F08D1244B5B6823F400327B682D
:103204009B68214913434B601F4B5B6823F4741282
:103214007B68196A7B685B6A0B431B4913434B60E9
:103224001B4B01221A60FFF7C3FD386108E0FFF76A
:10323400BFFD02463B69D31A022B01D903233DE0AB
:10324400114B1B6803F00073002BF0D035E0104BDA
:1032540000221A60FFF7ACFD386108E0FFF7A8FD13
:1032640002463B69D31A022B01D9032326E0064BFD
:103274001B6803F00073002BF0D11EE07B68DB6950
:10328400012B07D1012319E0001002400070004017
:10329400600042420B4B5B68FB60FB6803F48032C6
:1032A4007B681B6A9A4206D1FB6803F470127B6840
:1032B4005B6A9A4201D0012300E0002318461837C4
:1032C400BD4680BD0010024080B584B000AF786078
:1032D40039607B68002B01D10123D0E06A4B1B6865
:1032E40003F007033A689A4210D9674B1B6823F02E
:1032F400070265493B6813430B60634B1B6803F08B
:1033040007033A689A4201D00123B8E07B681B683E
:1033140003F00203002B20D07B681B6803F0040336
:10332400002B05D0594B5B68584A43F4E063536063
:103334007B681B6803F00803002B05D0534B5B68C4
:10334400524A43F460535360504B5B6823F0F002DD
:103354007B689B684D4913434B607B681B6803F093
:103364000103002B40D07B685B68012B07D1474BDE
:103374001B6803F40033002B15D101237FE07B6825
:103384005B68022B07D1414B1B6803F00073002BD1
:1033940009D1012373E03D4B1B6803F00203002BAA
:1033A40001D101236BE0394B5B6823F003027B6896
:1033B4005B68364913434B60FFF7FAFCF8600AE098
:1033C400FFF7F6FC0246FB68D31A41F288329342B7
:1033D40001D9032353E02D4B5B6803F00C027B6897
:1033E4005B689B009A42EBD1274B1B6803F00703F1
:1033F4003A689A4210D2244B1B6823F007022249F0
:103404003B6813430B60204B1B6803F007033A68C7
:103414009A4201D0012332E07B681B6803F0040365
:10342400002B08D0194B5B6823F4E0627B68DB68EF
:10343400164913434B607B681B6803F00803002B99
:1034440009D0124B5B6823F460527B681B69DB0074
:103454000E4913434B6000F021F802460B4B5B68A6
:103464001B0903F00F030A49CB5C22FA03F3094A50
:103474001360094B1B681846FFF758FC00231846D5
:103484001037BD4680BD00BF00200240001002403E
:1034940064570008140000200C00002080B487B09A
:1034A40000AF0023FB600023BB6000237B6100238B
:1034B4007B6000233B611E4B5B68FB60FB6803F091
:1034C4000C03042B02D0082B03D027E0194B3B61DB
:1034D40027E0FB689B0C03F00F03174AD35C7B6067
:1034E400FB6803F48033002B10D0114B5B685B0C3A
:1034F40003F00103114AD35CBB607B680D4A03FBF4
:1035040002F2BB68B2FBF3F37B6104E07B680C4A14
:1035140002FB03F37B617B693B6102E0054B3B618A
:1035240000BF3B6918461C37BD4680BC704700BFCE
:103534000010024000127A0050570008605700083B
:1035440000093D0080B400AF024B1B681846BD461D
:1035540080BC70471400002080B500AFFFF7F2FF75
:103564000246054B5B681B0A03F007030349CB5C67
:1035740022FA03F3184680BD001002407457000875
:1035840080B500AFFFF7DEFF0246054B5B68DB0A40
:1035940003F007030349CB5C22FA03F3184680BD0A
:1035A400001002407457000880B485B000AF786002
:1035B4000A4B1B680A4AA2FB03235B0A7A6802FBD4
:1035C40003F3FB6000BFFB685A1EFA60002BF9D1BD
:1035D40000BF00BF1437BD4680BC704714000020F4
:1035E400D34D621080B586B000AF786000233B6194
:1035F4000023FB607B681B6803F00103002B7DD074
:103604000023FB754F4BDB6903F08053002B0DD176
:103614004C4BDB694B4A43F08053D361494BDB6924
:1036240003F08053BB60BB680123FB75464B1B68EA
:1036340003F48073002B18D1434B1B68424A43F4B4
:1036440080731360FFF7B4FB386108E0FFF7B0FB49
:1036540002463B69D31A642B01D903236DE03A4B2C
:103664001B6803F48073002BF0D0364B1B6A03F401
:103674004073FB60FB68002B2ED07B685B6803F40F
:103684004073FA689A4227D02E4B1B6A23F4407386
:10369400FB602E4B01221A602C4B00221A60294A2F
:1036A400FB681362FB6803F00103002B14D0FFF7DF
:1036B4007FFB38610AE0FFF77BFB02463B69D31AC4
:1036C40041F28832934201D9032336E01D4B1B6A31
:1036D40003F00203002BEED01A4B1B6A23F4407252
:1036E4007B685B68174913430B62FB7D012B05D193
:1036F400144BDB69134A23F08053D3617B681B6846
:1037040003F00203002B08D00E4B5B6823F4404205
:103714007B689B680B4913434B607B681B6803F011
:103724001003002B08D0074B5B6823F480027B68EE
:103734005B69044913434B60002318461837BD46A0
:1037440080BD00BF001002400070004040044242AF
:1037540080B48BB000AF7860396000237B620023B3
:103764003B6279E101227B6A02FA03F3FB613B6865
:103774001B68FA691340BB61BA69FB699A4240F05D
:1037840068813B685B68964A93425ED0944A934250
:1037940075D8944A934258D0924A93426FD8924A29
:1037A400934252D0904A934269D8904A93424CD063
:1037B4008E4A934263D88E4A934246D08C4A9342AF
:1037C4005DD8122B2AD8122B59D801A252F823F013
:1037D4004F380008293800083B3800087D380008B5
:1037E40083380008833800088338000883380008C9
:1037F40083380008833800088338000883380008B9
:1038040083380008833800088338000883380008A8
:10381400833800083138000845380008754A934257
:1038240013D02CE03B68DB683B6229E03B68DB6833
:1038340004333B6224E03B68DB6808333B621FE0EF
:103844003B68DB680C333B621AE03B689B68002BE7
:1038540002D104233B6213E03B689B68012B05D132
:1038640008233B627B68FA691A6109E008233B621A
:103874007B68FA695A6103E000233B6200E000BF01
:10388400BB69FF2B01D87B6801E07B6804337B6153
:10389400BB69FF2B02D87B6A9B0002E07B6A083B72
:1038A4009B003B617B691A680F213B6901FA03F3B2
:1038B400DB431A40396A3B6901FA03F31A437B6913
:1038C4001A603B685B6803F08053002B00F0C180F2
:1038D400494B9B69484A43F001039361464B9B69FA
:1038E40003F00103BB60BB68444A7B6A9B08023354
:1038F40052F82330FB607B6A03F003039B000F2222
:1039040002FA03F3DB43FA681340FB607B683C4A2A
:1039140093421FD07B683B4A934219D07B683A4A52
:10392400934213D07B68394A93420DD07B68384A5E
:10393400934207D07B68374A934201D105230AE0BA
:10394400062308E0042306E0032304E0022302E044
:10395400012300E000237A6A02F0030292009340FC
:10396400FA681343FB6025497B6A9B080233FA68B3
:1039740041F823203B685B6803F48013002B06D0D6
:10398400254B9A682449BB6913438B6006E0224B9C
:103994009A68BB69DB43204913408B603B685B68D2
:1039A40003F40013002B06D01B4BDA681A49BB69D9
:1039B4001343CB6006E0184BDA68BB69DB43164956
:1039C4001340CB603B685B6803F40033002B25D0C5
:1039D400114B5A681049BB6913434B6025E000BF83
:1039E40000003210000031100000221000002110ED
:1039F40000001210000011100010024000000140ED
:103A040000080140000C0140001001400014014076
:103A140000180140001C014000040140154B5A6885
:103A2400BB69DB43134913404B603B685B6803F499
:103A34008033002B06D00F4B1A680E49BB69134321
:103A44000B6006E00B4B1A68BB69DB430949134062
:103A54000B607B6A01337B623B681A687B6A22FADB
:103A640003F3002B7FF47EAE00BF00BF2C37BD46AE
:103A740080BC70470004014080B483B000AF78601C
:103A84000B467B8013467B707B78002B03D07A88AF
:103A94007B681A6103E07B881A047B681A6100BFA3
:103AA4000C37BD4680BC704780B485B000AF7860E9
:103AB4000023FB737B6893F82130DBB2022B08D020
:103AC4007B6804229A637B68002283F82020012308
:103AD40020E07B681B681A687B681B6822F00E0272
:103AE4001A607B681B681A687B681B6822F00102F5
:103AF4001A607B681A6C7B68DB6B012101FA02F2A5
:103B04005A607B68012283F821207B68002283F8B5
:103B14002020FB7B18461437BD4680BC704700004C
:103B240080B584B000AF78600023FB737B6893F8A2
:103B34002130DBB2022B05D07B6804229A63012377
:103B4400FB73D6E07B681B681A687B681B6822F0ED
:103B54000E021A607B681B681A687B681B6822F077
:103B640001021A607B681B681A46644B9A4258D952
:103B74007B681B68624A93424FD07B681B68614A2A
:103B8400934248D07B681B685F4A934240D07B686D
:103B94001B685E4A934238D07B681B685C4A934238
:103BA40030D07B681B685B4A934228D07B681B68D3
:103BB400524A934220D07B681B68574A934219D0DB
:103BC4007B681B68554A934212D07B681B68544A31
:103BD40093420AD07B681B68524A934202D14FF445
:103BE40080531BE04FF4803318E04FF4807315E0EA
:103BF400102313E0012311E04FF080730EE04FF423
:103C040080130BE04FF4803308E04FF4805305E059
:103C14004FF4807302E0102300E00123424A536012
:103C240057E07B681B68364A93424FD07B681B6819
:103C3400344A934248D07B681B68334A934240D04D
:103C44007B681B68314A934238D07B681B68304AD2
:103C5400934230D07B681B682E4A934228D07B68FD
:103C64001B68264A934220D07B681B682A4A9342E9
:103C740019D07B681B68294A934212D07B681B6861
:103C8400274A93420AD07B681B68264A934202D192
:103C94004FF480531BE04FF4803318E04FF48073EB
:103CA40015E0102313E0012311E04FF080730EE0C0
:103CB4004FF480130BE04FF4803308E04FF480534B
:103CC40005E04FF4807302E0102300E00123174A5B
:103CD40053607B68012283F821207B68002283F8EB
:103CE40020207B685B6B002B03D07B685B6B786860
:103CF4009847FB7B18461037BD4680BD80000240C4
:103D0400080002401C00024030000240440002400F
:103D1400580002406C000240080402401C040240A7
:103D24003004024044040240000402400000024007
:103D340080B485B000AF78607B6803F00703FB6054
:103D44000C4BDB68BB60BA684FF6FF031340BB60E3
:103D5400FB681A02BB68134343F0BF6343F40033A8
:103D6400BB60044ABB68D36000BF1437BD4680BC47
:103D7400704700BF00ED00E080B400AF044BDB6887
:103D84001B0A03F007031846BD4680BC704700BFFA
:103D940000ED00E080B483B000AF0346FB7197F9F7
:103DA4000730002B0BDBFB7903F01F02064997F960
:103DB40007305B09012000FA02F241F8232000BF1A
:103DC4000C37BD4680BC704700E100E080B483B08E
:103DD40000AF03463960FB7197F90730002B0ADB0B
:103DE4003B68DAB20C4997F907301201D2B20B449E
:103DF40083F800230AE03B68DAB20849FB7903F050
:103E04000F03043B1201D2B20B441A7600BF0C37E5
:103E1400BD4680BC704700BF00E100E000ED00E05B
:103E240080B489B000AFF860B9607A60FB6803F0D1
:103E34000703FB61FB69C3F10703042B28BF0423B9
:103E4400BB61FB690433062B02D9FB69033B00E029
:103E540000237B614FF0FF32BB6902FA03F3DA43BC
:103E6400BB681A407B699A404FF0FF317B6901FAC5
:103E740003F3D9437B680B40134318462437BD46EC
:103E840080BC704780B582B000AF78607B68013B2E
:103E9400B3F1807F01D301230FE00A4A7B68013B21
:103EA40053600F214FF0FF30FFF790FF054B0022C6
:103EB4009A60044B07221A60002318460837BD464F
:103EC40080BD00BF10E000E080B582B000AF786034
:103ED4007868FFF72DFF00BF0837BD4680BD80B569
:103EE40086B000AF0346B9607A60FB7300237B6140
:103EF400FFF742FF78617A68B9687869FFF790FF45
:103F0400024697F90F3011461846FFF75FFF00BFCE
:103F14001837BD4680BD80B582B000AF0346FB7143
:103F240097F907301846FFF735FF00BF0837BD463D
:103F340080BD80B582B000AF78607868FFF7A2FFDB
:103F4400034618460837BD4680BD80B400AF00BFA5
:103F5400BD4680BC704780B582B000AF78607B6896
:103F6400002B01D1012342E07B6893F84130DBB29E
:103F7400002B06D17B68002283F840207868FEF786
:103F840071FB7B68242283F841207B681B68DA6814
:103F94007B681B6822F40052DA60786800F0C6FD82
:103FA4007B681B681A697B681B6822F490421A615B
:103FB4007B681B685A697B681B6822F02A025A6175
:103FC4007B681B68DA687B681B6842F40052DA601D
:103FD4007B6800225A647B68202283F841207B6836
:103FE400202283F842207B6800225A63002318466B
:103FF4000837BD4680BD80B58AB002AFF860B960AD
:104004003B601346FB8000237B61FB6893F84130DF
:10401400DBB2202B6DD1BB68002B02D0FB88002BB8
:1040240001D1012366E0FB6800225A64FB68212267
:1040340083F84120FEF7BCFE7861FB68FA889A8415
:10404400FB68FA88DA84FB689B68B3F5805F08D163
:10405400FB681B69002B04D10023FB61BB68BB61B7
:1040640003E0BB68FB610023BB612AE03B6800936B
:104074007B6900228021F86800F015FB0346002BC1
:1040840001D0032336E0FB69002B0BD1BB691B88ED
:104094001A46FB681B68C2F308025A60BB69023304
:1040A400BB6107E0FB691A78FB681B685A60FB690F
:1040B4000133FB61FB68DB8C9BB2013B9AB2FB686A
:1040C400DA84FB68DB8C9BB2002BCFD13B68009376
:1040D4007B6900224021F86800F0E5FA0346002BD2
:1040E40001D0032306E0FB68202283F8412000234B
:1040F40000E0022318462037BD4680BD80B584B059
:1041040000AFF860B9601346FB80FB6893F8423057
:10411400DBB2202B12D1BB68002B02D0FB88002B12
:1041240001D101230BE0FB6800221A63FB881A46C5
:10413400B968F86800F025FB034600E0022318463E
:104144001037BD4680BD000080B5BAB000AF7860BE
:104154007B681B681B68C7F8E4307B681B68DB68F6
:10416400C7F8E0307B681B685B69C7F8DC30002364
:10417400C7F8D8300023C7F8D430D7F8E43003F0B8
:104184000F03C7F8D830D7F8D830002B0FD1D7F8A1
:10419400E43003F02003002B09D0D7F8E03003F01B
:1041A4002003002B03D0786800F001FC5BE2D7F811
:1041B400D830002B00F0DE80D7F8DC3003F00103A8
:1041C400002B06D1D7F8E03003F49073002B00F0F5
:1041D400D180D7F8E43003F00103002B0BD0D7F8DB
:1041E400E03003F48073002B05D07B685B6C43F0F4
:1041F40001027B685A64D7F8E43003F00403002B0F
:104204000BD0D7F8DC3003F00103002B05D07B681A
:104214005B6C43F002027B685A64D7F8E43003F025
:104224000203002B0BD0D7F8DC3003F00103002B82
:1042340005D07B685B6C43F004027B685A64D7F852
:10424400E43003F00803002B11D0D7F8E03003F07A
:104254002003002B05D1D7F8DC3003F00103002B39
:1042640005D07B685B6C43F008027B685A647B680A
:104274005B6C002B00F0F281D7F8E43003F02003EC
:10428400002B08D0D7F8E03003F02003002B02D035
:10429400786800F08CFB7B681B685B6903F0400363
:1042A400002B14BF01230023DBB2C7F8D4307B6892
:1042B4005B6C03F00803002B03D1D7F8D430002B38
:1042C4004FD0786800F096FA7B681B685B6903F04E
:1042D4004003002B41D07B681B681433C7F89C3023
:1042E400D7F89C3053E8003FC7F89830D7F8983097
:1042F40023F04003C7F8D0307B681B681433D7F829
:10430400D020C7F8A820C7F8A430D7F8A410D7F84D
:10431400A82041E80023C7F8A030D7F8A030002B2C
:10432400D9D17B68DB6B002B13D07B68DB6B7E4AB7
:104334005A637B68DB6B1846FFF7F2FB0346002BDE
:1043440016D07B68DB6B5B6B7A68D26B1046984740
:104354000EE0786800F093F90AE0786800F08FF9CD
:1043640006E0786800F08BF97B6800225A6475E1F6
:1043740000BF73E17B681B6B012B40F04F81D7F8C2
:10438400E43003F01003002B00F04881D7F8E0304C
:1043940003F01003002B00F041810023BB607B6815
:1043A4001B681B68BB607B681B685B68BB60BB6881
:1043B4007B681B685B6903F04003002B00F0B68048
:1043C4007B68DB6B1B685B68A7F8BE30B7F8BE3050
:1043D400002B00F045817B689B8DB7F8BE209A4284
:1043E40080F03E817B68B7F8BE20DA857B68DB6BA2
:1043F4009B69202B00F088807B681B680C33C7F80E
:104404008830D7F8883053E8003FC7F88430D7F8AD
:10441400843023F48073C7F8B8307B681B680C338E
:10442400D7F8B820C7F89420C7F89030D7F8901080
:10443400D7F8942041E80023C7F88C30D7F88C30A3
:10444400002BD9D17B681B6814337B677B6F53E8DF
:10445400003F3B673B6F23F00103C7F8B4307B6830
:104464001B681433D7F8B420C7F88020FB67F96FB2
:10447400D7F8802041E80023BB67BB6F002BE1D154
:104484007B681B6814333B663B6E53E8003FFB6557
:10449400FB6D23F04003C7F8B0307B681B6814330E
:1044A400D7F8B020FA66BB66B96EFA6E41E800230D
:1044B4007B667B6E002BE3D17B68202283F842204D
:1044C4007B6800221A637B681B680C33FB64FB6CFB
:1044D40053E8003FBB64BB6C23F01003C7F8AC3057
:1044E4007B681B680C33D7F8AC20BA657B65796DA3
:1044F400BA6D41E800233B653B6D002BE3D17B683B
:10450400DB6B1846FFF7D0FA7B6802225A637B689C
:104514009A8D7B68DB8D9BB2D31A9BB2194678685F
:1045240000F0B6F89CE000BFBD4800087B689A8D97
:104534007B68DB8D9BB2D31AA7F8CE307B68DB8D0A
:104544009BB2002B00F08E80B7F8CE30002B00F029
:1045540089807B681B680C33BB63BB6B53E8003FEB
:104564007B637B6B23F49073C7F8C8307B681B684C
:104574000C33D7F8C8207A643B64396C7A6C41E810
:104584000023FB63FB6B002BE3D17B681B681433B4
:104594007B627B6A53E8003F3B623B6A23F0010382
:1045A400C7F8C4307B681B681433D7F8C4203A6357
:1045B400FB62F96A3A6B41E80023BB62BB6A002BD9
:1045C400E3D17B68202283F842207B6800221A63AF
:1045D4007B681B680C333B613B6953E8003FFB601D
:1045E400FB6823F01003C7F8C0307B681B680C33EA
:1045F400D7F8C020FA61BB61B969FA6941E80023C0
:104604007B617B69002BE3D17B6802225A63B7F894
:10461400CE301946786800F03BF823E0D7F8E43050
:1046240003F08003002B09D0D7F8E03003F08003B7
:10463400002B03D0786800F053F914E0D7F8E43085
:1046440003F04003002B0ED0D7F8E03003F0400312
:10465400002B08D0786800F092F904E000BF02E073
:1046640000BF00E000BFE837BD4680BD80B483B022
:1046740000AF786000BF0C37BD4680BC704780B483
:1046840083B000AF786000BF0C37BD4680BC704774
:1046940080B483B000AF78600B467B8000BF0C37DA
:1046A400BD4680BC704780B590B000AFF860B9607B
:1046B4003B601346FB7150E0BB6CB3F1FF3F4CD041
:1046C400BB6C002B07D0FEF773FB02463B68D31A82
:1046D400BA6C9A4241D2FB681B680C33BB62BB6A5A
:1046E40053E8003F7B627B6A23F4D073FB63FB686F
:1046F4001B680C33FA6B7A633B63396B7A6B41E862
:104704000023FB62FB6A002BE5D1FB681B681433B2
:104714007B617B6953E8003F3B613B6923F0010304
:10472400BB63FB681B681433BA6B3A62FB61F969BB
:104734003A6A41E80023BB61BB69002BE5D1FB6801
:10474400202283F84120FB68202283F84220FB6862
:10475400002283F8402003230FE0FB681B681A68DB
:10476400BB681340BA689A420CBF01230023DBB232
:104774001A46FB799A429FD0002318464037BD461B
:1047840080BD80B485B000AFF860B9601346FB808B
:10479400FB68BA689A62FB68FA889A85FB68FA88AB
:1047A400DA85FB6800225A64FB68222283F84220DF
:1047B400FB681B69002B07D0FB681B68DA68FB6881
:1047C4001B6842F48072DA60FB681B685A69FB68F4
:1047D4001B6842F001025A61FB681B68DA68FB68D7
:1047E4001B6842F02002DA60002318461437BD46E5
:1047F40080BC704780B495B000AF78607B681B685C
:104804000C337B637B6B53E8003F3B633B6B23F4CC
:104814009073FB647B681B680C33FA6C3A64FB632B
:10482400F96B3A6C41E80023BB63BB6B002BE5D109
:104834007B681B6814333B623B6A53E8003FFB61AF
:10484400FB6923F00103BB647B681B681433BA6CF7
:10485400FA62BB62B96AFA6A41E800237B627B6A46
:10486400002BE5D17B681B6B012B19D17B681B687E
:104874000C33FB60FB6853E8003FBB60BB6823F06C
:1048840010037B647B681B680C337A6CBA617B61B0
:104894007969BA6941E800233B613B69002BE5D1A2
:1048A4007B68202283F842207B6800221A6300BFC1
:1048B4005437BD4680BC704780B584B000AF786083
:1048C4007B685B6AFB60FB680022DA85FB68002278
:1048D400DA84F868FFF7D3FE00BF1037BD4680BD09
:1048E40080B485B000AF78607B6893F84130DBB268
:1048F400212B3ED17B689B68B3F5805F14D17B6824
:104904001B69002B10D17B681B6AFB60FB681B884A
:104914001A467B681B68C2F308025A607B681B6AEC
:104924009A1C7B681A6208E07B681B6A591C7A68C7
:1049340011621A787B681B685A607B68DB8C9BB2B7
:10494400013B9BB27A681946D184002B0FD17B6856
:104954001B68DA687B681B6822F08002DA607B6877
:104964001B68DA687B681B6842F04002DA60002347
:1049740000E0022318461437BD4680BC704780B55A
:1049840082B000AF78607B681B68DA687B681B685C
:1049940022F04002DA607B68202283F841207868A4
:1049A400FFF764FE002318460837BD4680BD80B576
:1049B4008CB000AF78607B6893F84230DBB2222B76
:1049C40040F0AE807B689B68B3F5805F17D17B684D
:1049D4001B69002B13D10023FB627B689B6ABB62BB
:1049E4007B681B685B689BB2C3F308039AB2BB6A1B
:1049F4001A807B689B6A9A1C7B689A6226E07B68B3
:104A04009B6AFB620023BB627B689B68B3F5805F93
:104A140007D07B689B68002B0AD17B681B69002B3D
:104A240006D17B681B685B68DAB2FB6A1A7008E01F
:104A34007B681B685B68DBB203F07F03DAB2FB6A56
:104A44001A707B689B6A5A1C7B689A627B68DB8D50
:104A54009BB2013B9BB27A681946D185002B5DD18C
:104A64007B681B68DA687B681B6822F02002DA60C6
:104A74007B681B68DA687B681B6822F48072DA60E2
:104A84007B681B685A697B681B6822F001025A61C3
:104A94007B68202283F842207B6800225A637B686B
:104AA4001B6B012B35D17B6800221A637B681B6862
:104AB4000C337B617B6953E8003F3B613B6923F026
:104AC40010037B627B681B680C337A6A3A62FB6171
:104AD400F9693A6A41E80023BB61BB69002BE5D15F
:104AE4007B681B681B6803F01003102B0AD100239A
:104AF400FB607B681B681B68FB607B681B685B68EA
:104B0400FB60FB687B689B8D19467868FFF7C0FDE6
:104B140002E07868FDF732FA002302E0002300E0A7
:104B2400022318463037BD4680BD000080B584B0EE
:104B340000AF78607B681B681B6923F440517B6875
:104B4400DA687B681B680A431A617B689A687B6829
:104B54001B691A437B685B691343BB607B681B68F2
:104B6400DB6823F4B05323F00C037A681268B96845
:104B74000B43D3607B681B685B6923F440717B68DB
:104B84009A697B681B680A435A617B681B682C4AD4
:104B9400934203D1FEF7F4FCF86002E0FEF7DCFC7C
:104BA400F860FA6813469B0013449A001A447B6821
:104BB4005B689B00B2FBF3F3224AA2FB03235B096D
:104BC4001901FA6813469B0013449A001A447B683F
:104BD4005B689B00B2FBF3F21A4BA3FB02035B0975
:104BE400642000FB03F3D31A1B013233154AA2FBE2
:104BF40003235B0903F0F0031944FA6813469B008E
:104C040013449A001A447B685B689B00B2FBF3F27E
:104C14000C4BA3FB02035B09642000FB03F3D31AD0
:104C24001B013233074AA2FB03235B0903F00F0283
:104C34007B681B680A449A6000BF1037BD4680BD7C
:104C4400003801401F85EB5180B483B000AF786019
:104C540039607B683A689A6200BF0C37BD4680BCF5
:104C6400704780B483B000AF786039607B683A687D
:104C7400DA6200BF0C37BD4680BC704780B483B095
:104C840000AF786039607B683A681A6300BF0C37FC
:104C9400BD4680BC704780B483B000AF7860396093
:104CA4007B683A685A6300BF0C37BD4680BC7047C6
:104CB40080B483B000AF786039607B683A689A63E7
:104CC40000BF0C37BD4680BC704780B483B000AFD2
:104CD400786039607B683A68DA6300BF0C37BD4698
:104CE40080BC704780B483B000AF786039607B6863
:104CF4003A681A6400BF0C37BD4680BC704780B464
:104D040083B000AF78607B685B6943F001027B6825
:104D14005A6100BF0C37BD4680BC704780B584B073
:104D240000AF786039607B681B68FB607B68314A40
:104D3400934213D07B68304A93420FD07B68B3F11F
:104D4400804F0BD07B682D4A934207D07B682C4A56
:104D5400934203D07B682B4A934206D1FB6823F02D
:104D640070023B685B681343FB607B68214A934293
:104D740013D07B68204A93420FD07B68B3F1804FF5
:104D84000BD07B681D4A934207D07B681C4A934230
:104D940003D07B681B4A934206D1FB6823F440721C
:104DA4003B68DB681343FB607B68FA681A603B6806
:104DB4009B6819467868FFF754FF3B681B881946BF
:104DC4007868FFF741FF7B680A4A934203D07B6807
:104DD400094A934205D13B681B6919467868FFF775
:104DE4004DFF7868FFF78BFF002318461037BD4648
:104DF40080BD00BF002C014000340140000400408D
:104E040000080040000C004080B586B000AFF86098
:104E1400B9607A600123FB75BB68B3F5805F27D066
:104E2400BB68B3F5805F2AD8BB68B3F5807F18D020
:104E3400BB68B3F5807F22D8BB68012B03D0BB6865
:104E4400102B07D01BE07968F86800F05FF8034680
:104E5400FB7515E07968F86800F0C4F80346FB7543
:104E64000EE07968F86800F02DF90346FB7507E059
:104E74007968F86800F096F90346FB7500E000BF16
:104E8400FB7D18461837BD4680BD80B485B000AFA1
:104E9400786039600023FB60FB6823F0FF033A6805
:104EA400127B1343FB60FB6823F440723B689B68EE
:104EB4001343FB60FB6823F480623B685B68134325
:104EC400FB60FB6823F400623B681B681343FB60D0
:104ED400FB6823F480533A68D2891343FB60FB6870
:104EE40023F400523B681B691343FB60FB6823F403
:104EF40080423B685B691343FB607B68FA685A64D1
:104F0400002318461437BD4680BC704780B586B070
:104F140000AF786039607B681B6A23F001027B680C
:104F24001A627B681B6A7B617B685B683B617B6898
:104F34009B69FB60FB6823F00303FB60FB6823F0C1
:104F440070023B681B681343FB607B6923F0020219
:104F54003B681B6913437B617B6923F001023B6857
:104F64005B6813437B617B681C4A934203D07B6874
:104F74001B4A93421ED17B6923F008023B685B699C
:104F84009B0013437B617B6923F004023B689B68AD
:104F94009B0013437B613B6923F480723B689B69EC
:104FA40013433B613B6923F400723B68DB695B009C
:104FB40013433B617B683A695A607B68FA689A617B
:104FC4003B68DB6819467868FFF765FE7B687A6999
:104FD4001A62002318461837BD4680BD002C0140D4
:104FE4000034014080B586B000AF786039607B68DA
:104FF4001B6A23F010027B681A627B681B6A7B6160
:105004007B685B683B617B689B69FB60FB6823F49E
:105014004073FB60FB6823F4E0423B681B681B029F
:105024001343FB607B6923F020023B681B691B016F
:1050340013437B617B6923F010023B685B681B01AF
:1050440013437B617B681D4A934203D07B681C4AEF
:1050540093421FD17B6923F080023B685B699B010B
:1050640013437B617B6923F040023B689B689B018F
:1050740013437B613B6923F480623B689B699B001B
:1050840013433B613B6923F400623B68DB69DB004B
:1050940013433B617B683A695A607B68FA689A619A
:1050A4003B68DB6819467868FFF702FE7B687A691B
:1050B4001A62002318461837BD4680BD002C0140F3
:1050C4000034014080B586B000AF786039607B68F9
:1050D4001B6A23F480727B681A627B681B6A7B619B
:1050E4007B685B683B617B68DB69FB60FB6823F082
:1050F4000303FB60FB6823F070023B681B681343E7
:10510400FB607B6923F400723B681B691B02134339
:105114007B617B6923F480723B685B681B021343E9
:105124007B617B681D4A934203D07B681C4A93428F
:105134001FD17B6923F400623B685B699B021343C4
:105144007B617B6923F480623B689B689B02134309
:105154007B613B6923F480523B689B691B011343C9
:105164003B613B6923F400523B68DB695B011343F9
:105174003B617B683A695A607B68FA68DA613B682C
:10518400DB6819467868FFF7A0FD7B687A691A62C4
:10519400002318461837BD4680BD00BF002C0140CF
:1051A4000034014080B586B000AF786039607B6818
:1051B4001B6A23F480527B681A627B681B6A3B611A
:1051C4007B685B687B617B68DB69FB60FB6823F45D
:1051D4004073FB60FB6823F4E0423B681B681B02DE
:1051E4001343FB603B6923F400523B681B691B03B8
:1051F40013433B613B6923F480523B685B681B03A8
:1052040013433B617B68114A934203D07B68104A85
:10521400934207D17B6923F480423B689B699B01DD
:1052240013437B617B687A695A607B68FA68DA6148
:105234003B68DB6819467868FFF754FD7B683A6978
:105244001A62002318461837BD4680BD002C014061
:105254000034014090B488B000AFF860B9607A605F
:10526400FB681A46BB681B0E13441C462268BB68C5
:105274007B617B6993FAA3F33B613B69B3FA83F3E4
:10528400DBB29B000F2101FA03F3DB431A40BB6836
:10529400FB61FB6993FAA3F3BB61BB69B3FA83F3C4
:1052A400DBB29B00796801FA03F31343236000BF68
:1052B4002037BD4690BC704790B488B000AFF8600A
:1052C400B9607A60FB681A46BB681B0E13441C461F
:1052D4002268BB687B617B6993FAA3F33B613B69FA
:1052E400B3FA83F3DBB29B00032101FA03F3DB433C
:1052F4001A40BB68FB61FB6993FAA3F3BB61BB690A
:10530400B3FA83F3DBB29B00796801FA03F3134326
:10531400236000BF2037BD4690BC704790B488B06E
:1053240000AFF860B9607A60FB681A46BB681B0E70
:1053340013441C462268BB687B617B6993FAA3F320
:105344003B613B69B3FA83F3DBB29B00042101FAAE
:1053540003F3DB431A40BB68FB61FB6993FAA3F3D5
:10536400BB61BB69B3FA83F3DBB29B00796801FAD2
:1053740003F31343236000BF2037BD4690BC70473E
:1053840080B487B000AFF860B9607A60FB68DA680F
:10539400BB681B0ADB431A40BB681B0A7B617B6941
:1053A40093FAA3F33B613B69B3FA83F3DBB2194687
:1053B4007B688B401A43FB68DA6000BF1C37BD462C
:1053C40080BC704780B588B000AF786039603B68B6
:1053D4001B681B021B0C7B617B693B613B6993FA75
:1053E400A3F3FB60FB68B3FA83F3DBB2FB6144E035
:1053F4000122FB699A407B691340002B3AD0FB6978
:10540400072B06D840F20112FB6902FA03F3BB61D1
:1054140008E0FB69083B4FF0011202FA03F343F082
:105424008063BB613B685B68082B06D13B681B69E2
:105434001A46B9697868FFF7A3FF3B685B681A46A8
:10544400B9697868FFF706FF3B685B68012B03D0F6
:105454003B685B68092B0DD13B689B681A46B969A8
:105464007868FFF729FF3B68DB681A46B9697868F2
:10547400FFF754FFFB690133FB617A69FB6922FA88
:1054840003F3002BB4D1002318462037BD4680BD5A
:1054940080B483B000AF786039607B68DB6A23F442
:1054A40070023B681A437B68DA6200BF0C37BD4662
:1054B40080BC704780B483B000AF78607B689B6821
:1054C40003F00103012B0CBF01230023DBB21846B8
:1054D4000C37BD4680BC704790B585B000AF78608E
:1054E40039600023FB737B681C4A93420ED11B482E
:1054F400FFF7E0FF04461A48FFF7DCFF03462343A7
:10550400002B0CBF01230023DBB208E01548FFF792
:10551400D1FF0346002B0CBF01230023DBB2002B79
:1055240014D03B681B68002B09D07B685B6823F4AC
:1055340070223B681B681A437B685A6008E07B68EA
:105544005B6823F470227B685A6001E00123FB73DB
:10555400FB7B18461437BD4690BD00BF00240140B4
:1055640000280140003C014080B584B000AF786061
:1055740039600023FB737868FFF79CFF0346002B18
:1055840012D17B685B6823F480723B685B681A43C2
:105594007B685A607B689B6823F400623B681B68E5
:1055A4001A437B689A6001E00123FB73FB7B184676
:1055B4001037BD4680BD80B584B000AF78603960D7
:1055C4000023FB737868FFF775FF0346002B31D186
:1055D4003B685B68002B0CD07B685B6823F46842F3
:1055E4003B6859683B689B680B431A437B685A6065
:1055F40008E07B685B6823F468423B685B681A4395
:105604007B685A607B689B6823F4602323F481736E
:105614003A6811683A68D26811433A6812690A43D1
:105624001A437B689A603B685B6819467868FFF7A1
:105634002FFF01E00123FB73FB7B18461037BD46A7
:1056440080BD0000FEF781FC0B480C490C4A002386
:1056540002E0D458C4500433C4188C42F9D3094A24
:10566400094C002301E013600432A242FBD300F092
:105674000FF8FCF77BF970470000002018000020A9
:105684008457000818000020DC000020FEE700001A
:1056940070B500260C4D0D4C641BA410A64209D114
:1056A40000F022F800260A4D0A4C641BA410A642FE
:1056B40005D170BD55F8043B98470136EEE755F81F
:1056C400043B98470136F2E77C5700087C570008F2
:1056D4007C5700088057000803460244934200D1D7
:1056E400704703F8011BF9E7F8B500BFF8BC08BC24
:1056F4009E467047F8B500BFF8BC08BC9E4670478C
:105704004572726F7221212143616E206E6F742085
:105714007265636569766520636F72726563742070
:10572400646174612E000000AF01010000000000FC
:10573400EF000000081C3044586C8000000000009A
:10574400040404000000080000000800020304052B
:10575400060708090A0B0C0D0E0F101001020000B9
:10576400000000000000000001020304060708090D
:08577400000000000102030423
:04577C000902000816
:04578000E501000837
:105784000000C84264000000000000001000000097
:08579400010000000024F400F4
:040000050800564950
:00000001FF
